{
  "_format": "hh-sol-artifact-1",
  "contractName": "MyEpicNFT",
  "sourceName": "contracts/MyEpicNFT.sol",
  "abi": [
    {
      "inputs": [],
      "stateMutability": "nonpayable",
      "type": "constructor"
    },
    {
      "anonymous": false,
      "inputs": [
        {
          "indexed": true,
          "internalType": "address",
          "name": "owner",
          "type": "address"
        },
        {
          "indexed": true,
          "internalType": "address",
          "name": "approved",
          "type": "address"
        },
        {
          "indexed": true,
          "internalType": "uint256",
          "name": "tokenId",
          "type": "uint256"
        }
      ],
      "name": "Approval",
      "type": "event"
    },
    {
      "anonymous": false,
      "inputs": [
        {
          "indexed": true,
          "internalType": "address",
          "name": "owner",
          "type": "address"
        },
        {
          "indexed": true,
          "internalType": "address",
          "name": "operator",
          "type": "address"
        },
        {
          "indexed": false,
          "internalType": "bool",
          "name": "approved",
          "type": "bool"
        }
      ],
      "name": "ApprovalForAll",
      "type": "event"
    },
    {
      "anonymous": false,
      "inputs": [
        {
          "indexed": false,
          "internalType": "address",
          "name": "sender",
          "type": "address"
        },
        {
          "indexed": false,
          "internalType": "uint256",
          "name": "tokenId",
          "type": "uint256"
        },
        {
          "indexed": false,
          "internalType": "uint256",
          "name": "mintedSoFar",
          "type": "uint256"
        }
      ],
      "name": "NewEpicNFTMinted",
      "type": "event"
    },
    {
      "anonymous": false,
      "inputs": [
        {
          "indexed": true,
          "internalType": "address",
          "name": "from",
          "type": "address"
        },
        {
          "indexed": true,
          "internalType": "address",
          "name": "to",
          "type": "address"
        },
        {
          "indexed": true,
          "internalType": "uint256",
          "name": "tokenId",
          "type": "uint256"
        }
      ],
      "name": "Transfer",
      "type": "event"
    },
    {
      "inputs": [
        {
          "internalType": "address",
          "name": "to",
          "type": "address"
        },
        {
          "internalType": "uint256",
          "name": "tokenId",
          "type": "uint256"
        }
      ],
      "name": "approve",
      "outputs": [],
      "stateMutability": "nonpayable",
      "type": "function"
    },
    {
      "inputs": [
        {
          "internalType": "address",
          "name": "owner",
          "type": "address"
        }
      ],
      "name": "balanceOf",
      "outputs": [
        {
          "internalType": "uint256",
          "name": "",
          "type": "uint256"
        }
      ],
      "stateMutability": "view",
      "type": "function"
    },
    {
      "inputs": [
        {
          "internalType": "uint256",
          "name": "tokenId",
          "type": "uint256"
        }
      ],
      "name": "getApproved",
      "outputs": [
        {
          "internalType": "address",
          "name": "",
          "type": "address"
        }
      ],
      "stateMutability": "view",
      "type": "function"
    },
    {
      "inputs": [],
      "name": "getMaxNFTCount",
      "outputs": [
        {
          "internalType": "uint256",
          "name": "",
          "type": "uint256"
        }
      ],
      "stateMutability": "view",
      "type": "function"
    },
    {
      "inputs": [],
      "name": "getTotalNFTsMintedSoFar",
      "outputs": [
        {
          "internalType": "uint256",
          "name": "",
          "type": "uint256"
        }
      ],
      "stateMutability": "view",
      "type": "function"
    },
    {
      "inputs": [
        {
          "internalType": "address",
          "name": "owner",
          "type": "address"
        },
        {
          "internalType": "address",
          "name": "operator",
          "type": "address"
        }
      ],
      "name": "isApprovedForAll",
      "outputs": [
        {
          "internalType": "bool",
          "name": "",
          "type": "bool"
        }
      ],
      "stateMutability": "view",
      "type": "function"
    },
    {
      "inputs": [],
      "name": "makeAnEpicNFT",
      "outputs": [],
      "stateMutability": "nonpayable",
      "type": "function"
    },
    {
      "inputs": [],
      "name": "name",
      "outputs": [
        {
          "internalType": "string",
          "name": "",
          "type": "string"
        }
      ],
      "stateMutability": "view",
      "type": "function"
    },
    {
      "inputs": [
        {
          "internalType": "uint256",
          "name": "tokenId",
          "type": "uint256"
        }
      ],
      "name": "ownerOf",
      "outputs": [
        {
          "internalType": "address",
          "name": "",
          "type": "address"
        }
      ],
      "stateMutability": "view",
      "type": "function"
    },
    {
      "inputs": [
        {
          "internalType": "address",
          "name": "from",
          "type": "address"
        },
        {
          "internalType": "address",
          "name": "to",
          "type": "address"
        },
        {
          "internalType": "uint256",
          "name": "tokenId",
          "type": "uint256"
        }
      ],
      "name": "safeTransferFrom",
      "outputs": [],
      "stateMutability": "nonpayable",
      "type": "function"
    },
    {
      "inputs": [
        {
          "internalType": "address",
          "name": "from",
          "type": "address"
        },
        {
          "internalType": "address",
          "name": "to",
          "type": "address"
        },
        {
          "internalType": "uint256",
          "name": "tokenId",
          "type": "uint256"
        },
        {
          "internalType": "bytes",
          "name": "_data",
          "type": "bytes"
        }
      ],
      "name": "safeTransferFrom",
      "outputs": [],
      "stateMutability": "nonpayable",
      "type": "function"
    },
    {
      "inputs": [
        {
          "internalType": "address",
          "name": "operator",
          "type": "address"
        },
        {
          "internalType": "bool",
          "name": "approved",
          "type": "bool"
        }
      ],
      "name": "setApprovalForAll",
      "outputs": [],
      "stateMutability": "nonpayable",
      "type": "function"
    },
    {
      "inputs": [
        {
          "internalType": "bytes4",
          "name": "interfaceId",
          "type": "bytes4"
        }
      ],
      "name": "supportsInterface",
      "outputs": [
        {
          "internalType": "bool",
          "name": "",
          "type": "bool"
        }
      ],
      "stateMutability": "view",
      "type": "function"
    },
    {
      "inputs": [],
      "name": "symbol",
      "outputs": [
        {
          "internalType": "string",
          "name": "",
          "type": "string"
        }
      ],
      "stateMutability": "view",
      "type": "function"
    },
    {
      "inputs": [
        {
          "internalType": "uint256",
          "name": "tokenId",
          "type": "uint256"
        }
      ],
      "name": "tokenURI",
      "outputs": [
        {
          "internalType": "string",
          "name": "",
          "type": "string"
        }
      ],
      "stateMutability": "view",
      "type": "function"
    },
    {
      "inputs": [
        {
          "internalType": "address",
          "name": "from",
          "type": "address"
        },
        {
          "internalType": "address",
          "name": "to",
          "type": "address"
        },
        {
          "internalType": "uint256",
          "name": "tokenId",
          "type": "uint256"
        }
      ],
      "name": "transferFrom",
      "outputs": [],
      "stateMutability": "nonpayable",
      "type": "function"
    }
  ],
  "bytecode": "0x608060405260405180610160016040528061012f81526020016200682d61012f913960089080519060200190620000389291906200265a565b506040518060400160405280602081526020017f272f3e3c73746f70206f66667365743d2731272073746f702d636f6c6f723d2781525060099080519060200190620000869291906200265a565b506040518060a00160405280606381526020016200695c60639139600a9080519060200190620000b89291906200265a565b506040518060e0016040528060b781526020016200670960b79139600b9080519060200190620000ea9291906200265a565b506040518060a00160405280606d8152602001620067c0606d9139600c90805190602001906200011c9291906200265a565b506040518060a00160405280606d8152602001620069bf606d9139600d90805190602001906200014e9291906200265a565b506040518060400160405280600d81526020017f3c2f746578743e3c2f7376673e00000000000000000000000000000000000000815250600e90805190602001906200019c9291906200265a565b506040518061064001604052806040518060400160405280600c81526020017f4163636964656e74616c6c79000000000000000000000000000000000000000081525081526020016040518060400160405280600881526020017f41637475616c6c7900000000000000000000000000000000000000000000000081525081526020016040518060400160405280600681526020017f416c77617973000000000000000000000000000000000000000000000000000081525081526020016040518060400160405280600881526020017f416e6e75616c6c7900000000000000000000000000000000000000000000000081525081526020016040518060400160405280600981526020017f416e78696f75736c79000000000000000000000000000000000000000000000081525081526020016040518060400160405280600a81526020017f4172726f67616e746c790000000000000000000000000000000000000000000081525081526020016040518060400160405280600981526020017f41776b776172646c79000000000000000000000000000000000000000000000081525081526020016040518060400160405280600b81526020017f42656175746966756c6c7900000000000000000000000000000000000000000081525081526020016040518060400160405280600881526020017f4269747465726c7900000000000000000000000000000000000000000000000081525081526020016040518060400160405280600781526020017f42726176656c790000000000000000000000000000000000000000000000000081525081526020016040518060400160405280600781526020017f42726965666c790000000000000000000000000000000000000000000000000081525081526020016040518060400160405280600981526020017f4361726566756c6c79000000000000000000000000000000000000000000000081525081526020016040518060400160405280600981526020017f4365727461696e6c79000000000000000000000000000000000000000000000081525081526020016040518060400160405280600581526020017f4461696c7900000000000000000000000000000000000000000000000000000081525081526020016040518060400160405280600a81526020017f446f75627466756c6c790000000000000000000000000000000000000000000081525081526020016040518060400160405280600681526020017f456173696c79000000000000000000000000000000000000000000000000000081525081526020016040518060400160405280600981526020017f456c6567616e746c79000000000000000000000000000000000000000000000081525081526020016040518060400160405280600a81526020017f457370656369616c6c790000000000000000000000000000000000000000000081525081526020016040518060400160405280600781526020017f45786163746c790000000000000000000000000000000000000000000000000081525081526020016040518060400160405280600681526020017f466169726c79000000000000000000000000000000000000000000000000000081525081526020016040518060400160405280600981526020017f47656e6572616c6c79000000000000000000000000000000000000000000000081525081526020016040518060400160405280600781526020017f47726561746c790000000000000000000000000000000000000000000000000081525081526020016040518060400160405280600781526020017f48617070696c790000000000000000000000000000000000000000000000000081525081526020016040518060400160405280600981526020017f48656c7066756c6c79000000000000000000000000000000000000000000000081525081526020016040518060400160405280600881526020017f486f6e6573746c7900000000000000000000000000000000000000000000000081525081526020016040518060400160405280600b81526020017f496d6d6564696174656c7900000000000000000000000000000000000000000081525081526020016040518060400160405280600a81526020017f496e6e6f63656e746c790000000000000000000000000000000000000000000081525081526020016040518060400160405280600981526020017f4a65616c6f75736c79000000000000000000000000000000000000000000000081525081526020016040518060400160405280600681526020017f4b65656e6c79000000000000000000000000000000000000000000000000000081525081526020016040518060400160405280600681526020017f4c6976656c79000000000000000000000000000000000000000000000000000081525081526020016040518060400160405280600981526020017f4d6973657261626c79000000000000000000000000000000000000000000000081525081526020016040518060400160405280600c81526020017f4d7973746572696f75736c79000000000000000000000000000000000000000081525081526020016040518060400160405280600981526020017f4e61747572616c6c79000000000000000000000000000000000000000000000081525081526020016040518060400160405280600a81526020017f4f6666696369616c6c790000000000000000000000000000000000000000000081525081526020016040518060400160405280600581526020017f4f6674656e00000000000000000000000000000000000000000000000000000081525081526020016040518060400160405280600881526020017f506f6c6974656c7900000000000000000000000000000000000000000000000081525081526020016040518060400160405280600781526020017f517569636b6c790000000000000000000000000000000000000000000000000081525081526020016040518060400160405280600881526020017f52616e646f6d6c7900000000000000000000000000000000000000000000000081525081526020016040518060400160405280600781526020017f52617069646c790000000000000000000000000000000000000000000000000081525081526020016040518060400160405280600981526020017f526567756c61726c79000000000000000000000000000000000000000000000081525081526020016040518060400160405280600681526020017f53656c646f6d000000000000000000000000000000000000000000000000000081525081526020016040518060400160405280600681526020017f536c6f776c79000000000000000000000000000000000000000000000000000081525081526020016040518060400160405280600881526020017f53756464656e6c7900000000000000000000000000000000000000000000000081525081526020016040518060400160405280600a81526020017f5468616e6b66756c6c790000000000000000000000000000000000000000000081525081526020016040518060400160405280600c81526020017f556e65787065637465646c79000000000000000000000000000000000000000081525081526020016040518060400160405280600d81526020017f556e666f7274756e6174656c790000000000000000000000000000000000000081525081526020016040518060400160405280600881526020017f55736566756c6c7900000000000000000000000000000000000000000000000081525081526020016040518060400160405280600b81526020017f566f6c756e746172696c7900000000000000000000000000000000000000000081525081526020016040518060400160405280600781526020017f57726f6e676c790000000000000000000000000000000000000000000000000081525081526020016040518060400160405280600981526020017f5a65616c6f75736c790000000000000000000000000000000000000000000000815250815250600f90603262000d3f929190620026eb565b506040518061064001604052806040518060400160405280600681526020017f5a6f6e6b6564000000000000000000000000000000000000000000000000000081525081526020016040518060400160405280600681526020017f4c6f6f706564000000000000000000000000000000000000000000000000000081525081526020016040518060400160405280600681526020017f506f74746564000000000000000000000000000000000000000000000000000081525081526020016040518060400160405280600481526020017f486967680000000000000000000000000000000000000000000000000000000081525081526020016040518060400160405280600a81526020017f5370616365642d6f75740000000000000000000000000000000000000000000081525081526020016040518060400160405280600b81526020017f496e746f7869636174656400000000000000000000000000000000000000000081525081526020016040518060400160405280600981526020017f4d616c6963696f7573000000000000000000000000000000000000000000000081525081526020016040518060400160405280600381526020017f4d6164000000000000000000000000000000000000000000000000000000000081525081526020016040518060400160405280600381526020017f4c6974000000000000000000000000000000000000000000000000000000000081525081526020016040518060400160405280600681526020017f4c6f61646564000000000000000000000000000000000000000000000000000081525081526020016040518060400160405280600881526020017f5472697070696e6700000000000000000000000000000000000000000000000081525081526020016040518060400160405280600781526020017f5069636b6c65640000000000000000000000000000000000000000000000000081525081526020016040518060400160405280600781526020017f536c6f736865640000000000000000000000000000000000000000000000000081525081526020016040518060400160405280600881526020017f436f636b6579656400000000000000000000000000000000000000000000000081525081526020016040518060400160405280600681526020017f537465776564000000000000000000000000000000000000000000000000000081525081526020016040518060400160405280600581526020017f437275656c00000000000000000000000000000000000000000000000000000081525081526020016040518060400160405280600681526020017f4d616c69676e000000000000000000000000000000000000000000000000000081525081526020016040518060400160405280600981526020017f486f707065642d7570000000000000000000000000000000000000000000000081525081526020016040518060400160405280600981526020017f5269707065644f7574000000000000000000000000000000000000000000000081525081526020016040518060400160405280600a81526020017f496e65627269617465640000000000000000000000000000000000000000000081525081526020016040518060400160405280600981526020017f506c61737465726564000000000000000000000000000000000000000000000081525081526020016040518060400160405280600581526020017f426c696e6400000000000000000000000000000000000000000000000000000081525081526020016040518060400160405280600681526020017f556e6b696e64000000000000000000000000000000000000000000000000000081525081526020016040518060400160405280600681526020017f426974746572000000000000000000000000000000000000000000000000000081525081526020016040518060400160405280600681526020017f536176616765000000000000000000000000000000000000000000000000000081525081526020016040518060400160405280600681526020017f536f6464656e000000000000000000000000000000000000000000000000000081525081526020016040518060400160405280600981526020017f506978696c61746564000000000000000000000000000000000000000000000081525081526020016040518060400160405280600781526020017f536d61736865640000000000000000000000000000000000000000000000000081525081526020016040518060400160405280600581526020017f446f70656400000000000000000000000000000000000000000000000000000081525081526020016040518060400160405280600681526020017f426f6f7a6564000000000000000000000000000000000000000000000000000081525081526020016040518060400160405280600b81526020017f556e636f6e7363696f757300000000000000000000000000000000000000000081525081526020016040518060400160405280600781526020017f447275676765640000000000000000000000000000000000000000000000000081525081526020016040518060400160405280600481526020017f4d65616e0000000000000000000000000000000000000000000000000000000081525081526020016040518060400160405280600581526020017f426f6f7a7900000000000000000000000000000000000000000000000000000081525081526020016040518060400160405280600981526020017f43726170756c656e74000000000000000000000000000000000000000000000081525081526020016040518060400160405280600681526020017f536f75736564000000000000000000000000000000000000000000000000000081525081526020016040518060400160405280600881526020017f4265736f7474656400000000000000000000000000000000000000000000000081525081526020016040518060400160405280600681526020017f426f6d626564000000000000000000000000000000000000000000000000000081525081526020016040518060400160405280600781526020017f43726f636b65640000000000000000000000000000000000000000000000000081525081526020016040518060400160405280600581526020017f4472756e6b00000000000000000000000000000000000000000000000000000081525081526020016040518060400160405280600981526020017f526573656e7466756c000000000000000000000000000000000000000000000081525081526020016040518060400160405280600581526020017f416e67727900000000000000000000000000000000000000000000000000000081525081526020016040518060400160405280600781526020017f4472756e6b656e0000000000000000000000000000000000000000000000000081525081526020016040518060400160405280600581526020017f546970737900000000000000000000000000000000000000000000000000000081525081526020016040518060400160405280600881526020017f5374696e6b696e6700000000000000000000000000000000000000000000000081525081526020016040518060400160405280600581526020017f546967687400000000000000000000000000000000000000000000000000000081525081526020016040518060400160405280600881526020017f57697065644f757400000000000000000000000000000000000000000000000081525081526020016040518060400160405280600681526020017f5374696e6b6f000000000000000000000000000000000000000000000000000081525081526020016040518060400160405280600981526020017f43726170756c6f7573000000000000000000000000000000000000000000000081525081526020016040518060400160405280600581526020017f4e617374790000000000000000000000000000000000000000000000000000008152508152506010906032620018e2929190620026eb565b506040518061064001604052806040518060400160405280600681526020017f4d69636b6579000000000000000000000000000000000000000000000000000081525081526020016040518060400160405280600681526020017f4d696e6e6965000000000000000000000000000000000000000000000000000081525081526020016040518060400160405280600681526020017f446f6e616c64000000000000000000000000000000000000000000000000000081525081526020016040518060400160405280600581526020017f446169737900000000000000000000000000000000000000000000000000000081525081526020016040518060400160405280600581526020017f476f6f667900000000000000000000000000000000000000000000000000000081525081526020016040518060400160405280600a81526020017f536e6f772057686974650000000000000000000000000000000000000000000081525081526020016040518060400160405280600981526020017f50696e6f636368696f000000000000000000000000000000000000000000000081525081526020016040518060400160405280600581526020017f44756d626f00000000000000000000000000000000000000000000000000000081525081526020016040518060400160405280600a81526020017f43696e646572656c6c610000000000000000000000000000000000000000000081525081526020016040518060400160405280600581526020017f416c69636500000000000000000000000000000000000000000000000000000081525081526020016040518060400160405280600981526020017f50657465722050616e000000000000000000000000000000000000000000000081525081526020016040518060400160405280600f81526020017f536c656570696e6720426561757479000000000000000000000000000000000081525081526020016040518060400160405280600481526020017f506f6f680000000000000000000000000000000000000000000000000000000081525081526020016040518060400160405280600581526020017f417269656c00000000000000000000000000000000000000000000000000000081525081526020016040518060400160405280600581526020017f426561737400000000000000000000000000000000000000000000000000000081525081526020016040518060400160405280600581526020017f42656c6c6500000000000000000000000000000000000000000000000000000081525081526020016040518060400160405280600781526020017f416c616464696e0000000000000000000000000000000000000000000000000081525081526020016040518060400160405280600781526020017f4a61736d696e650000000000000000000000000000000000000000000000000081525081526020016040518060400160405280600581526020017f53696d626100000000000000000000000000000000000000000000000000000081525081526020016040518060400160405280600581526020017f576f6f647900000000000000000000000000000000000000000000000000000081525081526020016040518060400160405280600481526020017f42757a7a0000000000000000000000000000000000000000000000000000000081525081526020016040518060400160405280600981526020017f51756173696d6f646f000000000000000000000000000000000000000000000081525081526020016040518060400160405280600981526020017f45736d6572616c6461000000000000000000000000000000000000000000000081525081526020016040518060400160405280600881526020017f48657263756c657300000000000000000000000000000000000000000000000081525081526020016040518060400160405280600581526020017f4d756c616e00000000000000000000000000000000000000000000000000000081525081526020016040518060400160405280600681526020017f5461727a616e000000000000000000000000000000000000000000000000000081525081526020016040518060400160405280600881526020017f53756c6c6976616e00000000000000000000000000000000000000000000000081525081526020016040518060400160405280600881526020017f57617a6f77736b6900000000000000000000000000000000000000000000000081525081526020016040518060400160405280600481526020017f4c696c6f0000000000000000000000000000000000000000000000000000000081525081526020016040518060400160405280600681526020017f537469746368000000000000000000000000000000000000000000000000000081525081526020016040518060400160405280600481526020017f4e656d6f0000000000000000000000000000000000000000000000000000000081525081526020016040518060400160405280600481526020017f446f72790000000000000000000000000000000000000000000000000000000081525081526020016040518060400160405280600681526020017f57616c6c2d65000000000000000000000000000000000000000000000000000081525081526020016040518060400160405280600381526020017f457665000000000000000000000000000000000000000000000000000000000081525081526020016040518060400160405280600881526020017f526170756e7a656c00000000000000000000000000000000000000000000000081525081526020016040518060400160405280600681526020017f4d6572696461000000000000000000000000000000000000000000000000000081525081526020016040518060400160405280600581526020017f52616c706800000000000000000000000000000000000000000000000000000081525081526020016040518060400160405280600981526020017f56616e656c6c6f7065000000000000000000000000000000000000000000000081525081526020016040518060400160405280600481526020017f456c73610000000000000000000000000000000000000000000000000000000081525081526020016040518060400160405280600481526020017f416e6e610000000000000000000000000000000000000000000000000000000081525081526020016040518060400160405280600481526020017f4f6c61660000000000000000000000000000000000000000000000000000000081525081526020016040518060400160405280600681526020017f4261796d6178000000000000000000000000000000000000000000000000000081525081526020016040518060400160405280600381526020017f4a6f79000000000000000000000000000000000000000000000000000000000081525081526020016040518060400160405280600781526020017f5361646e6573730000000000000000000000000000000000000000000000000081525081526020016040518060400160405280600481526020017f466561720000000000000000000000000000000000000000000000000000000081525081526020016040518060400160405280600581526020017f416e67657200000000000000000000000000000000000000000000000000000081525081526020016040518060400160405280600781526020017f446973677573740000000000000000000000000000000000000000000000000081525081526020016040518060400160405280600581526020017f4d6f616e6100000000000000000000000000000000000000000000000000000081525081526020016040518060400160405280600481526020017f4d6175690000000000000000000000000000000000000000000000000000000081525081526020016040518060400160405280600481526020017f436f636f00000000000000000000000000000000000000000000000000000000815250815250601190603262002485929190620026eb565b50600f805490506012553480156200249c57600080fd5b506040518060400160405280601781526020017f436f6c6f7266756c2043726f6f6b20436172746f6f6e730000000000000000008152506040518060400160405280600381526020017f43434300000000000000000000000000000000000000000000000000000000008152508160009080519060200190620025219291906200265a565b5080600190805190602001906200253a9291906200265a565b505050620025886040518060400160405280601e81526020017f54686973206973206d79204e465420636f6e74726163742e20576f61682100008152506200258e60201b620010681760201c565b6200290c565b6200262e81604051602401620025a5919062002820565b6040516020818303038152906040527f41304fac000000000000000000000000000000000000000000000000000000007bffffffffffffffffffffffffffffffffffffffffffffffffffffffff19166020820180517bffffffffffffffffffffffffffffffffffffffffffffffffffffffff83818316178352505050506200263160201b60201c565b50565b60008151905060006a636f6e736f6c652e6c6f679050602083016000808483855afa5050505050565b828054620026689062002896565b90600052602060002090601f0160209004810192826200268c5760008555620026d8565b82601f10620026a757805160ff1916838001178555620026d8565b82800160010185558215620026d8579182015b82811115620026d7578251825591602001919060010190620026ba565b5b509050620026e7919062002752565b5090565b8280548282559060005260206000209081019282156200273f579160200282015b828111156200273e5782518290805190602001906200272d9291906200265a565b50916020019190600101906200270c565b5b5090506200274e919062002771565b5090565b5b808211156200276d57600081600090555060010162002753565b5090565b5b808211156200279557600081816200278b919062002799565b5060010162002772565b5090565b508054620027a79062002896565b6000825580601f10620027bb5750620027dc565b601f016020900490600052602060002090810190620027db919062002752565b5b50565b6000620027ec8262002844565b620027f881856200284f565b93506200280a81856020860162002860565b6200281581620028fb565b840191505092915050565b600060208201905081810360008301526200283c8184620027df565b905092915050565b600081519050919050565b600082825260208201905092915050565b60005b838110156200288057808201518184015260208101905062002863565b8381111562002890576000848401525b50505050565b60006002820490506001821680620028af57607f821691505b60208210811415620028c657620028c5620028cc565b5b50919050565b7f4e487b7100000000000000000000000000000000000000000000000000000000600052602260045260246000fd5b6000601f19601f8301169050919050565b613ded806200291c6000396000f3fe608060405234801561001057600080fd5b50600436106101005760003560e01c806370a0823111610097578063b88d4fde11610066578063b88d4fde146102ad578063c87b56dd146102c9578063de9d132f146102f9578063e985e9c51461030357610100565b806370a082311461022557806383a2d53d1461025557806395d89b4114610273578063a22cb4651461029157610100565b8063095ea7b3116100d3578063095ea7b3146101a157806323b872dd146101bd57806342842e0e146101d95780636352211e146101f557610100565b806301ffc9a714610105578063060475901461013557806306fdde0314610153578063081812fc14610171575b600080fd5b61011f600480360381019061011a919061277d565b610333565b60405161012c9190613602565b60405180910390f35b61013d610415565b60405161014a919061389d565b60405180910390f35b61015b61042f565b604051610168919061361d565b60405180910390f35b61018b600480360381019061018691906127cf565b6104c1565b6040516101989190613564565b60405180910390f35b6101bb60048036038101906101b69190612741565b610546565b005b6101d760048036038101906101d2919061263b565b61065e565b005b6101f360048036038101906101ee919061263b565b6106be565b005b61020f600480360381019061020a91906127cf565b6106de565b60405161021c9190613564565b60405180910390f35b61023f600480360381019061023a91906125d6565b610790565b60405161024c919061389d565b60405180910390f35b61025d610848565b60405161026a919061389d565b60405180910390f35b61027b610852565b604051610288919061361d565b60405180910390f35b6102ab60048036038101906102a69190612705565b6108e4565b005b6102c760048036038101906102c2919061268a565b610a65565b005b6102e360048036038101906102de91906127cf565b610ac7565b6040516102f0919061361d565b60405180910390f35b610301610c19565b005b61031d600480360381019061031891906125ff565b610fd4565b60405161032a9190613602565b60405180910390f35b60007f80ac58cd000000000000000000000000000000000000000000000000000000007bffffffffffffffffffffffffffffffffffffffffffffffffffffffff1916827bffffffffffffffffffffffffffffffffffffffffffffffffffffffff191614806103fe57507f5b5e139f000000000000000000000000000000000000000000000000000000007bffffffffffffffffffffffffffffffffffffffffffffffffffffffff1916827bffffffffffffffffffffffffffffffffffffffffffffffffffffffff1916145b8061040e575061040d82611101565b5b9050919050565b6000600f8054905060125461042a9190613a52565b905090565b60606000805461043e90613b7d565b80601f016020809104026020016040519081016040528092919081815260200182805461046a90613b7d565b80156104b75780601f1061048c576101008083540402835291602001916104b7565b820191906000526020600020905b81548152906001019060200180831161049a57829003601f168201915b5050505050905090565b60006104cc8261116b565b61050b576040517f08c379a0000000000000000000000000000000000000000000000000000000008152600401610502906137fd565b60405180910390fd5b6004600083815260200190815260200160002060009054906101000a900473ffffffffffffffffffffffffffffffffffffffff169050919050565b6000610551826106de565b90508073ffffffffffffffffffffffffffffffffffffffff168373ffffffffffffffffffffffffffffffffffffffff1614156105c2576040517f08c379a00000000000000000000000000000000000000000000000000000000081526004016105b99061385d565b60405180910390fd5b8073ffffffffffffffffffffffffffffffffffffffff166105e16111d7565b73ffffffffffffffffffffffffffffffffffffffff161480610610575061060f8161060a6111d7565b610fd4565b5b61064f576040517f08c379a00000000000000000000000000000000000000000000000000000000081526004016106469061373d565b60405180910390fd5b61065983836111df565b505050565b61066f6106696111d7565b82611298565b6106ae576040517f08c379a00000000000000000000000000000000000000000000000000000000081526004016106a59061387d565b60405180910390fd5b6106b9838383611376565b505050565b6106d983838360405180602001604052806000815250610a65565b505050565b6000806002600084815260200190815260200160002060009054906101000a900473ffffffffffffffffffffffffffffffffffffffff169050600073ffffffffffffffffffffffffffffffffffffffff168173ffffffffffffffffffffffffffffffffffffffff161415610787576040517f08c379a000000000000000000000000000000000000000000000000000000000815260040161077e9061377d565b60405180910390fd5b80915050919050565b60008073ffffffffffffffffffffffffffffffffffffffff168273ffffffffffffffffffffffffffffffffffffffff161415610801576040517f08c379a00000000000000000000000000000000000000000000000000000000081526004016107f89061375d565b60405180910390fd5b600360008373ffffffffffffffffffffffffffffffffffffffff1673ffffffffffffffffffffffffffffffffffffffff168152602001908152602001600020549050919050565b6000601254905090565b60606001805461086190613b7d565b80601f016020809104026020016040519081016040528092919081815260200182805461088d90613b7d565b80156108da5780601f106108af576101008083540402835291602001916108da565b820191906000526020600020905b8154815290600101906020018083116108bd57829003601f168201915b5050505050905090565b6108ec6111d7565b73ffffffffffffffffffffffffffffffffffffffff168273ffffffffffffffffffffffffffffffffffffffff16141561095a576040517f08c379a0000000000000000000000000000000000000000000000000000000008152600401610951906136fd565b60405180910390fd5b80600560006109676111d7565b73ffffffffffffffffffffffffffffffffffffffff1673ffffffffffffffffffffffffffffffffffffffff16815260200190815260200160002060008473ffffffffffffffffffffffffffffffffffffffff1673ffffffffffffffffffffffffffffffffffffffff16815260200190815260200160002060006101000a81548160ff0219169083151502179055508173ffffffffffffffffffffffffffffffffffffffff16610a146111d7565b73ffffffffffffffffffffffffffffffffffffffff167f17307eab39ab6107e8899845ad3d59bd9653f200f220920489ca2b5937696c3183604051610a599190613602565b60405180910390a35050565b610a76610a706111d7565b83611298565b610ab5576040517f08c379a0000000000000000000000000000000000000000000000000000000008152600401610aac9061387d565b60405180910390fd5b610ac1848484846115d2565b50505050565b6060610ad28261116b565b610b11576040517f08c379a0000000000000000000000000000000000000000000000000000000008152600401610b08906137dd565b60405180910390fd5b6000600660008481526020019081526020016000208054610b3190613b7d565b80601f0160208091040260200160405190810160405280929190818152602001828054610b5d90613b7d565b8015610baa5780601f10610b7f57610100808354040283529160200191610baa565b820191906000526020600020905b815481529060010190602001808311610b8d57829003601f168201915b505050505090506000610bbb61162e565b9050600081511415610bd1578192505050610c14565b600082511115610c06578082604051602001610bee9291906132e4565b60405160208183030381529060405292505050610c14565b610c0f84611645565b925050505b919050565b6000610c2560076116ec565b90506000600f8054905011610c6f576040517f08c379a0000000000000000000000000000000000000000000000000000000008152600401610c669061369d565b60405180910390fd5b60008142610c7d9190613971565b90506000610cc2826040518060400160405280600a81526020017f46495253545f574f524400000000000000000000000000000000000000000000815250600f6116fa565b90506000610d07836040518060400160405280600b81526020017f5345434f4e445f574f524400000000000000000000000000000000000000000081525060106116fa565b90506000610d4c846040518060400160405280600a81526020017f54484952445f574f52440000000000000000000000000000000000000000000081525060116116fa565b90506000838383604051602001610d65939291906133b5565b6040516020818303038152906040529050606080610d8287611923565b80925081935050506000600883600984604051602001610da594939291906133fc565b604051602081830303815290604052905080600a836009604051602001610dcf9493929190613377565b60405160208183030381529060405290508083600b89604051602001610df89493929190613339565b604051602081830303815290604052905080600c87600d604051602001610e229493929190613377565b60405160208183030381529060405290508085600e604051602001610e4993929190613308565b60405160208183030381529060405290506000610e8e85610e6984611aaf565b604051602001610e7a9291906134db565b604051602081830303815290604052611aaf565b9050600081604051602001610ea39190613520565b6040516020818303038152906040529050610ef26040518060400160405280601581526020017f0a2d2d2d2d2d2d2d2d2d2d2d2d2d2d2d2d2d2d2d2d0000000000000000000000815250611068565b610efb81611068565b610f396040518060400160405280601581526020017f2d2d2d2d2d2d2d2d2d2d2d2d2d2d2d2d2d2d2d2d0a0000000000000000000000815250611068565b610f43338c611c6d565b610f4d8b82611c8b565b610f576007611cff565b610f7a604051806060016040528060258152602001613d53602591398c33611d15565b7f9e9e101732de0887d722bd72c01c5439edc857c9c2c763953d67e66de12441d3338c600f80549050601254610fb09190613a52565b604051610fbf939291906135cb565b60405180910390a15050505050505050505050565b6000600560008473ffffffffffffffffffffffffffffffffffffffff1673ffffffffffffffffffffffffffffffffffffffff16815260200190815260200160002060008373ffffffffffffffffffffffffffffffffffffffff1673ffffffffffffffffffffffffffffffffffffffff16815260200190815260200160002060009054906101000a900460ff16905092915050565b6110fe8160405160240161107c919061361d565b6040516020818303038152906040527f41304fac000000000000000000000000000000000000000000000000000000007bffffffffffffffffffffffffffffffffffffffffffffffffffffffff19166020820180517bffffffffffffffffffffffffffffffffffffffffffffffffffffffff8381831617835250505050611db4565b50565b60007f01ffc9a7000000000000000000000000000000000000000000000000000000007bffffffffffffffffffffffffffffffffffffffffffffffffffffffff1916827bffffffffffffffffffffffffffffffffffffffffffffffffffffffff1916149050919050565b60008073ffffffffffffffffffffffffffffffffffffffff166002600084815260200190815260200160002060009054906101000a900473ffffffffffffffffffffffffffffffffffffffff1673ffffffffffffffffffffffffffffffffffffffff1614159050919050565b600033905090565b816004600083815260200190815260200160002060006101000a81548173ffffffffffffffffffffffffffffffffffffffff021916908373ffffffffffffffffffffffffffffffffffffffff160217905550808273ffffffffffffffffffffffffffffffffffffffff16611252836106de565b73ffffffffffffffffffffffffffffffffffffffff167f8c5be1e5ebec7d5bd14f71427d1e84f3dd0314c0f7b2291e5b200ac8c7c3b92560405160405180910390a45050565b60006112a38261116b565b6112e2576040517f08c379a00000000000000000000000000000000000000000000000000000000081526004016112d99061371d565b60405180910390fd5b60006112ed836106de565b90508073ffffffffffffffffffffffffffffffffffffffff168473ffffffffffffffffffffffffffffffffffffffff16148061135c57508373ffffffffffffffffffffffffffffffffffffffff16611344846104c1565b73ffffffffffffffffffffffffffffffffffffffff16145b8061136d575061136c8185610fd4565b5b91505092915050565b8273ffffffffffffffffffffffffffffffffffffffff16611396826106de565b73ffffffffffffffffffffffffffffffffffffffff16146113ec576040517f08c379a00000000000000000000000000000000000000000000000000000000081526004016113e39061381d565b60405180910390fd5b600073ffffffffffffffffffffffffffffffffffffffff168273ffffffffffffffffffffffffffffffffffffffff16141561145c576040517f08c379a0000000000000000000000000000000000000000000000000000000008152600401611453906136dd565b60405180910390fd5b611467838383611ddd565b6114726000826111df565b6001600360008573ffffffffffffffffffffffffffffffffffffffff1673ffffffffffffffffffffffffffffffffffffffff16815260200190815260200160002060008282546114c29190613a52565b925050819055506001600360008473ffffffffffffffffffffffffffffffffffffffff1673ffffffffffffffffffffffffffffffffffffffff16815260200190815260200160002060008282546115199190613971565b92505081905550816002600083815260200190815260200160002060006101000a81548173ffffffffffffffffffffffffffffffffffffffff021916908373ffffffffffffffffffffffffffffffffffffffff160217905550808273ffffffffffffffffffffffffffffffffffffffff168473ffffffffffffffffffffffffffffffffffffffff167fddf252ad1be2c89b69c2b068fc378daa952ba7f163c4a11628f55a4df523b3ef60405160405180910390a4505050565b6115dd848484611376565b6115e984848484611de2565b611628576040517f08c379a000000000000000000000000000000000000000000000000000000000815260040161161f9061367d565b60405180910390fd5b50505050565b606060405180602001604052806000815250905090565b60606116508261116b565b61168f576040517f08c379a00000000000000000000000000000000000000000000000000000000081526004016116869061383d565b60405180910390fd5b600061169961162e565b905060008151116116b957604051806020016040528060008152506116e4565b806116c384611f79565b6040516020016116d49291906132e4565b6040516020818303038152906040525b915050919050565b600081600001549050919050565b606060006117308461170b87611f79565b60405160200161171c9291906132e4565b604051602081830303815290604052612126565b90508280549050816117429190613bf8565b9050600083828154811061177f577f4e487b7100000000000000000000000000000000000000000000000000000000600052603260045260246000fd5b90600052602060002001805461179490613b7d565b80601f01602080910402602001604051908101604052809291908181526020018280546117c090613b7d565b801561180d5780601f106117e25761010080835404028352916020019161180d565b820191906000526020600020905b8154815290600101906020018083116117f057829003601f168201915b5050505050905083600185805490506118269190613a52565b8154811061185d577f4e487b7100000000000000000000000000000000000000000000000000000000600052603260045260246000fd5b906000526020600020018483815481106118a0577f4e487b7100000000000000000000000000000000000000000000000000000000600052603260045260246000fd5b906000526020600020019080546118b690613b7d565b6118c1929190612395565b50838054806118f9577f4e487b7100000000000000000000000000000000000000000000000000000000600052603160045260246000fd5b6001900381819060005260206000200160006119159190612422565b905580925050509392505050565b606080600061010061195b61193786611f79565b6040516020016119479190613542565b604051602081830303815290604052612126565b6119659190613bf8565b9050600061010061199c61197887611f79565b60405160200161198891906134b9565b604051602081830303815290604052612126565b6119a69190613bf8565b905060006101006119dd6119b988611f79565b6040516020016119c9919061343a565b604051602081830303815290604052612126565b6119e79190613bf8565b905060006119f78460ff16611f79565b611a038460ff16611f79565b611a0f8460ff16611f79565b604051602001611a219392919061345c565b60405160208183030381529060405290506000611a4c8560ff611a449190613a86565b60ff16611f79565b611a648560ff611a5c9190613a86565b60ff16611f79565b611a7c8560ff611a749190613a86565b60ff16611f79565b604051602001611a8e9392919061345c565b60405160208183030381529060405290508181965096505050505050915091565b60606000825190506000811415611ad85760405180602001604052806000815250915050611c68565b60006003600283611ae99190613971565b611af391906139c7565b6004611aff91906139f8565b90506000602082611b109190613971565b67ffffffffffffffff811115611b4f577f4e487b7100000000000000000000000000000000000000000000000000000000600052604160045260246000fd5b6040519080825280601f01601f191660200182016040528015611b815781602001600182028036833780820191505090505b5090506000604051806060016040528060408152602001613d78604091399050600181016020830160005b86811015611c255760038101905062ffffff818a015116603f8160121c168401518060081b905060ff603f83600c1c1686015116810190508060081b905060ff603f8360061c1686015116810190508060081b905060ff603f831686015116810190508060e01b90508084526004840193505050611bac565b506003860660018114611c3f5760028114611c4f57611c5a565b613d3d60f01b6002830352611c5a565b603d60f81b60018303525b508484525050819450505050505b919050565b611c87828260405180602001604052806000815250612159565b5050565b611c948261116b565b611cd3576040517f08c379a0000000000000000000000000000000000000000000000000000000008152600401611cca9061379d565b60405180910390fd5b80600660008481526020019081526020016000209080519060200190611cfa929190612462565b505050565b6001816000016000828254019250508190555050565b611daf838383604051602401611d2d9392919061363f565b6040516020818303038152906040527fe3849f79000000000000000000000000000000000000000000000000000000007bffffffffffffffffffffffffffffffffffffffffffffffffffffffff19166020820180517bffffffffffffffffffffffffffffffffffffffffffffffffffffffff8381831617835250505050611db4565b505050565b60008151905060006a636f6e736f6c652e6c6f679050602083016000808483855afa5050505050565b505050565b6000611e038473ffffffffffffffffffffffffffffffffffffffff166121b4565b15611f6c578373ffffffffffffffffffffffffffffffffffffffff1663150b7a02611e2c6111d7565b8786866040518563ffffffff1660e01b8152600401611e4e949392919061357f565b602060405180830381600087803b158015611e6857600080fd5b505af1925050508015611e9957506040513d601f19601f82011682018060405250810190611e9691906127a6565b60015b611f1c573d8060008114611ec9576040519150601f19603f3d011682016040523d82523d6000602084013e611ece565b606091505b50600081511415611f14576040517f08c379a0000000000000000000000000000000000000000000000000000000008152600401611f0b9061367d565b60405180910390fd5b805181602001fd5b63150b7a0260e01b7bffffffffffffffffffffffffffffffffffffffffffffffffffffffff1916817bffffffffffffffffffffffffffffffffffffffffffffffffffffffff191614915050611f71565b600190505b949350505050565b60606000821415611fc1576040518060400160405280600181526020017f30000000000000000000000000000000000000000000000000000000000000008152509050612121565b600082905060005b60008214611ff3578080611fdc90613baf565b915050600a82611fec91906139c7565b9150611fc9565b60008167ffffffffffffffff811115612035577f4e487b7100000000000000000000000000000000000000000000000000000000600052604160045260246000fd5b6040519080825280601f01601f1916602001820160405280156120675781602001600182028036833780820191505090505b5090505b6000851461211a576001826120809190613a52565b9150600a8561208f9190613bf8565b603061209b9190613971565b60f81b8183815181106120d7577f4e487b7100000000000000000000000000000000000000000000000000000000600052603260045260246000fd5b60200101907effffffffffffffffffffffffffffffffffffffffffffffffffffffffffffff1916908160001a905350600a8561211391906139c7565b945061206b565b8093505050505b919050565b60008160405160200161213991906132cd565b6040516020818303038152906040528051906020012060001c9050919050565b61216383836121c7565b6121706000848484611de2565b6121af576040517f08c379a00000000000000000000000000000000000000000000000000000000081526004016121a69061367d565b60405180910390fd5b505050565b600080823b905060008111915050919050565b600073ffffffffffffffffffffffffffffffffffffffff168273ffffffffffffffffffffffffffffffffffffffff161415612237576040517f08c379a000000000000000000000000000000000000000000000000000000000815260040161222e906137bd565b60405180910390fd5b6122408161116b565b15612280576040517f08c379a0000000000000000000000000000000000000000000000000000000008152600401612277906136bd565b60405180910390fd5b61228c60008383611ddd565b6001600360008473ffffffffffffffffffffffffffffffffffffffff1673ffffffffffffffffffffffffffffffffffffffff16815260200190815260200160002060008282546122dc9190613971565b92505081905550816002600083815260200190815260200160002060006101000a81548173ffffffffffffffffffffffffffffffffffffffff021916908373ffffffffffffffffffffffffffffffffffffffff160217905550808273ffffffffffffffffffffffffffffffffffffffff16600073ffffffffffffffffffffffffffffffffffffffff167fddf252ad1be2c89b69c2b068fc378daa952ba7f163c4a11628f55a4df523b3ef60405160405180910390a45050565b8280546123a190613b7d565b90600052602060002090601f0160209004810192826123c35760008555612411565b82601f106123d45780548555612411565b8280016001018555821561241157600052602060002091601f016020900482015b828111156124105782548255916001019190600101906123f5565b5b50905061241e91906124e8565b5090565b50805461242e90613b7d565b6000825580601f10612440575061245f565b601f01602090049060005260206000209081019061245e91906124e8565b5b50565b82805461246e90613b7d565b90600052602060002090601f01602090048101928261249057600085556124d7565b82601f106124a957805160ff19168380011785556124d7565b828001600101855582156124d7579182015b828111156124d65782518255916020019190600101906124bb565b5b5090506124e491906124e8565b5090565b5b808211156125015760008160009055506001016124e9565b5090565b6000612518612513846138e9565b6138b8565b90508281526020810184848401111561253057600080fd5b61253b848285613b3b565b509392505050565b60008135905061255281613cf6565b92915050565b60008135905061256781613d0d565b92915050565b60008135905061257c81613d24565b92915050565b60008151905061259181613d24565b92915050565b600082601f8301126125a857600080fd5b81356125b8848260208601612505565b91505092915050565b6000813590506125d081613d3b565b92915050565b6000602082840312156125e857600080fd5b60006125f684828501612543565b91505092915050565b6000806040838503121561261257600080fd5b600061262085828601612543565b925050602061263185828601612543565b9150509250929050565b60008060006060848603121561265057600080fd5b600061265e86828701612543565b935050602061266f86828701612543565b9250506040612680868287016125c1565b9150509250925092565b600080600080608085870312156126a057600080fd5b60006126ae87828801612543565b94505060206126bf87828801612543565b93505060406126d0878288016125c1565b925050606085013567ffffffffffffffff8111156126ed57600080fd5b6126f987828801612597565b91505092959194509250565b6000806040838503121561271857600080fd5b600061272685828601612543565b925050602061273785828601612558565b9150509250929050565b6000806040838503121561275457600080fd5b600061276285828601612543565b9250506020612773858286016125c1565b9150509250929050565b60006020828403121561278f57600080fd5b600061279d8482850161256d565b91505092915050565b6000602082840312156127b857600080fd5b60006127c684828501612582565b91505092915050565b6000602082840312156127e157600080fd5b60006127ef848285016125c1565b91505092915050565b61280181613aba565b82525050565b61281081613acc565b82525050565b60006128218261392e565b61282b8185613944565b935061283b818560208601613b4a565b61284481613ce5565b840191505092915050565b600061285a82613939565b6128648185613955565b9350612874818560208601613b4a565b61287d81613ce5565b840191505092915050565b600061289382613939565b61289d8185613966565b93506128ad818560208601613b4a565b80840191505092915050565b600081546128c681613b7d565b6128d08186613966565b945060018216600081146128eb57600181146128fc5761292f565b60ff1983168652818601935061292f565b61290585613919565b60005b8381101561292757815481890152600182019150602081019050612908565b838801955050505b50505092915050565b6000612945603283613955565b91507f4552433732313a207472616e7366657220746f206e6f6e20455243373231526560008301527f63656976657220696d706c656d656e74657200000000000000000000000000006020830152604082019050919050565b60006129ab603783613955565b91507f536f7272792120436f6d706c657465204e465420436f6c6c656374696f6e206860008301527f617320616c7265616479206265656e206d696e7465642e0000000000000000006020830152604082019050919050565b6000612a11601c83613955565b91507f4552433732313a20746f6b656e20616c7265616479206d696e746564000000006000830152602082019050919050565b6000612a51600483613966565b91507f424c5545000000000000000000000000000000000000000000000000000000006000830152600482019050919050565b6000612a91600183613966565b91507f2c000000000000000000000000000000000000000000000000000000000000006000830152600182019050919050565b6000612ad1600483613966565b91507f72676228000000000000000000000000000000000000000000000000000000006000830152600482019050919050565b6000612b11602483613955565b91507f4552433732313a207472616e7366657220746f20746865207a65726f2061646460008301527f72657373000000000000000000000000000000000000000000000000000000006020830152604082019050919050565b6000612b77601983613955565b91507f4552433732313a20617070726f766520746f2063616c6c6572000000000000006000830152602082019050919050565b6000612bb7606383613966565b91507f222c20226465736372697074696f6e223a20224120686967686c79206163636c60008301527f61696d656420636f6c6c656374696f6e206f6620737175617265732e222c202260208301527f696d616765223a2022646174613a696d6167652f7376672b786d6c3b6261736560408301527f36342c00000000000000000000000000000000000000000000000000000000006060830152606382019050919050565b6000612c69602c83613955565b91507f4552433732313a206f70657261746f7220717565727920666f72206e6f6e657860008301527f697374656e7420746f6b656e00000000000000000000000000000000000000006020830152604082019050919050565b6000612ccf600183613966565b91507f29000000000000000000000000000000000000000000000000000000000000006000830152600182019050919050565b6000612d0f600183613966565b91507f20000000000000000000000000000000000000000000000000000000000000006000830152600182019050919050565b6000612d4f603883613955565b91507f4552433732313a20617070726f76652063616c6c6572206973206e6f74206f7760008301527f6e6572206e6f7220617070726f76656420666f7220616c6c00000000000000006020830152604082019050919050565b6000612db5602a83613955565b91507f4552433732313a2062616c616e636520717565727920666f7220746865207a6560008301527f726f2061646472657373000000000000000000000000000000000000000000006020830152604082019050919050565b6000612e1b602983613955565b91507f4552433732313a206f776e657220717565727920666f72206e6f6e657869737460008301527f656e7420746f6b656e00000000000000000000000000000000000000000000006020830152604082019050919050565b6000612e81602e83613955565b91507f45524337323155524953746f726167653a2055524920736574206f66206e6f6e60008301527f6578697374656e7420746f6b656e0000000000000000000000000000000000006020830152604082019050919050565b6000612ee7600283613966565b91507f227d0000000000000000000000000000000000000000000000000000000000006000830152600282019050919050565b6000612f27600583613966565b91507f475245454e0000000000000000000000000000000000000000000000000000006000830152600582019050919050565b6000612f67602083613955565b91507f4552433732313a206d696e7420746f20746865207a65726f20616464726573736000830152602082019050919050565b6000612fa7603183613955565b91507f45524337323155524953746f726167653a2055524920717565727920666f722060008301527f6e6f6e6578697374656e7420746f6b656e0000000000000000000000000000006020830152604082019050919050565b600061300d602c83613955565b91507f4552433732313a20617070726f76656420717565727920666f72206e6f6e657860008301527f697374656e7420746f6b656e00000000000000000000000000000000000000006020830152604082019050919050565b6000613073602983613955565b91507f4552433732313a207472616e73666572206f6620746f6b656e2074686174206960008301527f73206e6f74206f776e00000000000000000000000000000000000000000000006020830152604082019050919050565b60006130d9602f83613955565b91507f4552433732314d657461646174613a2055524920717565727920666f72206e6f60008301527f6e6578697374656e7420746f6b656e00000000000000000000000000000000006020830152604082019050919050565b600061313f600a83613966565b91507f7b226e616d65223a2022000000000000000000000000000000000000000000006000830152600a82019050919050565b600061317f602183613955565b91507f4552433732313a20617070726f76616c20746f2063757272656e74206f776e6560008301527f72000000000000000000000000000000000000000000000000000000000000006020830152604082019050919050565b60006131e5601d83613966565b91507f646174613a6170706c69636174696f6e2f6a736f6e3b6261736536342c0000006000830152601d82019050919050565b6000613225603183613955565b91507f4552433732313a207472616e736665722063616c6c6572206973206e6f74206f60008301527f776e6572206e6f7220617070726f7665640000000000000000000000000000006020830152604082019050919050565b600061328b600383613966565b91507f52454400000000000000000000000000000000000000000000000000000000006000830152600382019050919050565b6132c781613b24565b82525050565b60006132d98284612888565b915081905092915050565b60006132f08285612888565b91506132fc8284612888565b91508190509392505050565b60006133148286612888565b91506133208285612888565b915061332c82846128b9565b9150819050949350505050565b60006133458287612888565b91506133518286612888565b915061335d82856128b9565b91506133698284612888565b915081905095945050505050565b60006133838287612888565b915061338f82866128b9565b915061339b8285612888565b91506133a782846128b9565b915081905095945050505050565b60006133c18286612888565b91506133cc82612d02565b91506133d88285612888565b91506133e382612d02565b91506133ef8284612888565b9150819050949350505050565b600061340882876128b9565b91506134148286612888565b915061342082856128b9565b915061342c8284612888565b915081905095945050505050565b600061344582612a44565b91506134518284612888565b915081905092915050565b600061346782612ac4565b91506134738286612888565b915061347e82612a84565b915061348a8285612888565b915061349582612a84565b91506134a18284612888565b91506134ac82612cc2565b9150819050949350505050565b60006134c482612f1a565b91506134d08284612888565b915081905092915050565b60006134e682613132565b91506134f28285612888565b91506134fd82612baa565b91506135098284612888565b915061351482612eda565b91508190509392505050565b600061352b826131d8565b91506135378284612888565b915081905092915050565b600061354d8261327e565b91506135598284612888565b915081905092915050565b600060208201905061357960008301846127f8565b92915050565b600060808201905061359460008301876127f8565b6135a160208301866127f8565b6135ae60408301856132be565b81810360608301526135c08184612816565b905095945050505050565b60006060820190506135e060008301866127f8565b6135ed60208301856132be565b6135fa60408301846132be565b949350505050565b60006020820190506136176000830184612807565b92915050565b60006020820190508181036000830152613637818461284f565b905092915050565b60006060820190508181036000830152613659818661284f565b905061366860208301856132be565b61367560408301846127f8565b949350505050565b6000602082019050818103600083015261369681612938565b9050919050565b600060208201905081810360008301526136b68161299e565b9050919050565b600060208201905081810360008301526136d681612a04565b9050919050565b600060208201905081810360008301526136f681612b04565b9050919050565b6000602082019050818103600083015261371681612b6a565b9050919050565b6000602082019050818103600083015261373681612c5c565b9050919050565b6000602082019050818103600083015261375681612d42565b9050919050565b6000602082019050818103600083015261377681612da8565b9050919050565b6000602082019050818103600083015261379681612e0e565b9050919050565b600060208201905081810360008301526137b681612e74565b9050919050565b600060208201905081810360008301526137d681612f5a565b9050919050565b600060208201905081810360008301526137f681612f9a565b9050919050565b6000602082019050818103600083015261381681613000565b9050919050565b6000602082019050818103600083015261383681613066565b9050919050565b60006020820190508181036000830152613856816130cc565b9050919050565b6000602082019050818103600083015261387681613172565b9050919050565b6000602082019050818103600083015261389681613218565b9050919050565b60006020820190506138b260008301846132be565b92915050565b6000604051905081810181811067ffffffffffffffff821117156138df576138de613cb6565b5b8060405250919050565b600067ffffffffffffffff82111561390457613903613cb6565b5b601f19601f8301169050602081019050919050565b60008190508160005260206000209050919050565b600081519050919050565b600081519050919050565b600082825260208201905092915050565b600082825260208201905092915050565b600081905092915050565b600061397c82613b24565b915061398783613b24565b9250827fffffffffffffffffffffffffffffffffffffffffffffffffffffffffffffffff038211156139bc576139bb613c29565b5b828201905092915050565b60006139d282613b24565b91506139dd83613b24565b9250826139ed576139ec613c58565b5b828204905092915050565b6000613a0382613b24565b9150613a0e83613b24565b9250817fffffffffffffffffffffffffffffffffffffffffffffffffffffffffffffffff0483118215151615613a4757613a46613c29565b5b828202905092915050565b6000613a5d82613b24565b9150613a6883613b24565b925082821015613a7b57613a7a613c29565b5b828203905092915050565b6000613a9182613b2e565b9150613a9c83613b2e565b925082821015613aaf57613aae613c29565b5b828203905092915050565b6000613ac582613b04565b9050919050565b60008115159050919050565b60007fffffffff0000000000000000000000000000000000000000000000000000000082169050919050565b600073ffffffffffffffffffffffffffffffffffffffff82169050919050565b6000819050919050565b600060ff82169050919050565b82818337600083830152505050565b60005b83811015613b68578082015181840152602081019050613b4d565b83811115613b77576000848401525b50505050565b60006002820490506001821680613b9557607f821691505b60208210811415613ba957613ba8613c87565b5b50919050565b6000613bba82613b24565b91507fffffffffffffffffffffffffffffffffffffffffffffffffffffffffffffffff821415613bed57613bec613c29565b5b600182019050919050565b6000613c0382613b24565b9150613c0e83613b24565b925082613c1e57613c1d613c58565b5b828206905092915050565b7f4e487b7100000000000000000000000000000000000000000000000000000000600052601160045260246000fd5b7f4e487b7100000000000000000000000000000000000000000000000000000000600052601260045260246000fd5b7f4e487b7100000000000000000000000000000000000000000000000000000000600052602260045260246000fd5b7f4e487b7100000000000000000000000000000000000000000000000000000000600052604160045260246000fd5b6000601f19601f8301169050919050565b613cff81613aba565b8114613d0a57600080fd5b50565b613d1681613acc565b8114613d2157600080fd5b50565b613d2d81613ad8565b8114613d3857600080fd5b50565b613d4481613b24565b8114613d4f57600080fd5b5056fe416e204e465420772f20494420257320686173206265656e206d696e74656420746f2025734142434445464748494a4b4c4d4e4f505152535455565758595a6162636465666768696a6b6c6d6e6f707172737475767778797a303132333435363738392b2fa264697066735822122083a84cf561d71061f83367d36afa17382e88669c66134d3f796befc51e324bd064736f6c63430008000033272f3e3c2f6c696e6561724772616469656e743e3c2f646566733e3c726563742077696474683d273130302527206865696768743d2731303025272066696c6c3d2775726c282367726164312927202f3e3c7465787420783d273530252720793d27333525272066696c6c3d2775726c28236772616432292720636c6173733d27626173652720646f6d696e616e742d626173656c696e653d276d6964646c652720746578742d616e63686f723d276d6964646c65273e3c2f746578743e3c7465787420783d273530252720793d27353025272066696c6c3d2775726c28236772616432292720636c6173733d27626173652720646f6d696e616e742d626173656c696e653d276d6964646c652720746578742d616e63686f723d276d6964646c65273e3c73766720786d6c6e733d27687474703a2f2f7777772e77332e6f72672f323030302f73766727207072657365727665417370656374526174696f3d27784d696e594d696e206d656574272076696577426f783d273020302033353020333530273e3c7374796c653e2e62617365207b20666f6e742d66616d696c793a2068656c7665746963613b20666f6e742d73697a653a20333670783b207061696e742d6f726465723a207374726f6b653b207374726f6b653a2077686974653b207374726f6b652d77696474683a203170783b207d3c2f7374796c653e3c646566733e3c6c696e6561724772616469656e742069643d276772616431272078313d2730272079313d2730272078323d2731303025272079323d2731303025273e3c73746f702073746f702d636f6c6f723d27272f3e3c2f6c696e6561724772616469656e743e3c6c696e6561724772616469656e742069643d276772616432272078313d2730272079313d2730272078323d2731303025272079323d2731303025273e3c73746f702073746f702d636f6c6f723d273c2f746578743e3c7465787420783d273530252720793d27363525272066696c6c3d2775726c28236772616432292720636c6173733d27626173652720646f6d696e616e742d626173656c696e653d276d6964646c652720746578742d616e63686f723d276d6964646c65273e",
  "linkReferences": {},
  "deployedLinkReferences": {}
}